{
  "_format": "hh-sol-artifact-1",
  "contractName": "EpicNFT",
  "sourceName": "contracts/epicNFT.sol",
  "abi": [
    {
      "inputs": [],
      "stateMutability": "nonpayable",
      "type": "constructor"
    },
    {
      "anonymous": false,
      "inputs": [
        {
          "indexed": true,
          "internalType": "address",
          "name": "owner",
          "type": "address"
        },
        {
          "indexed": true,
          "internalType": "address",
          "name": "approved",
          "type": "address"
        },
        {
          "indexed": true,
          "internalType": "uint256",
          "name": "tokenId",
          "type": "uint256"
        }
      ],
      "name": "Approval",
      "type": "event"
    },
    {
      "anonymous": false,
      "inputs": [
        {
          "indexed": true,
          "internalType": "address",
          "name": "owner",
          "type": "address"
        },
        {
          "indexed": true,
          "internalType": "address",
          "name": "operator",
          "type": "address"
        },
        {
          "indexed": false,
          "internalType": "bool",
          "name": "approved",
          "type": "bool"
        }
      ],
      "name": "ApprovalForAll",
      "type": "event"
    },
    {
      "anonymous": false,
      "inputs": [
        {
          "indexed": false,
          "internalType": "address",
          "name": "sender",
          "type": "address"
        },
        {
          "indexed": false,
          "internalType": "uint256",
          "name": "tokenId",
          "type": "uint256"
        }
      ],
      "name": "NewEpicNFTMinted",
      "type": "event"
    },
    {
      "anonymous": false,
      "inputs": [
        {
          "indexed": true,
          "internalType": "address",
          "name": "from",
          "type": "address"
        },
        {
          "indexed": true,
          "internalType": "address",
          "name": "to",
          "type": "address"
        },
        {
          "indexed": true,
          "internalType": "uint256",
          "name": "tokenId",
          "type": "uint256"
        }
      ],
      "name": "Transfer",
      "type": "event"
    },
    {
      "inputs": [
        {
          "internalType": "address",
          "name": "to",
          "type": "address"
        },
        {
          "internalType": "uint256",
          "name": "tokenId",
          "type": "uint256"
        }
      ],
      "name": "approve",
      "outputs": [],
      "stateMutability": "nonpayable",
      "type": "function"
    },
    {
      "inputs": [
        {
          "internalType": "address",
          "name": "owner",
          "type": "address"
        }
      ],
      "name": "balanceOf",
      "outputs": [
        {
          "internalType": "uint256",
          "name": "",
          "type": "uint256"
        }
      ],
      "stateMutability": "view",
      "type": "function"
    },
    {
      "inputs": [
        {
          "internalType": "uint256",
          "name": "tokenId",
          "type": "uint256"
        }
      ],
      "name": "getApproved",
      "outputs": [
        {
          "internalType": "address",
          "name": "",
          "type": "address"
        }
      ],
      "stateMutability": "view",
      "type": "function"
    },
    {
      "inputs": [
        {
          "internalType": "address",
          "name": "owner",
          "type": "address"
        },
        {
          "internalType": "address",
          "name": "operator",
          "type": "address"
        }
      ],
      "name": "isApprovedForAll",
      "outputs": [
        {
          "internalType": "bool",
          "name": "",
          "type": "bool"
        }
      ],
      "stateMutability": "view",
      "type": "function"
    },
    {
      "inputs": [],
      "name": "makeEpicNFT",
      "outputs": [],
      "stateMutability": "nonpayable",
      "type": "function"
    },
    {
      "inputs": [],
      "name": "name",
      "outputs": [
        {
          "internalType": "string",
          "name": "",
          "type": "string"
        }
      ],
      "stateMutability": "view",
      "type": "function"
    },
    {
      "inputs": [
        {
          "internalType": "uint256",
          "name": "tokenId",
          "type": "uint256"
        }
      ],
      "name": "ownerOf",
      "outputs": [
        {
          "internalType": "address",
          "name": "",
          "type": "address"
        }
      ],
      "stateMutability": "view",
      "type": "function"
    },
    {
      "inputs": [
        {
          "internalType": "uint256",
          "name": "tokenId",
          "type": "uint256"
        }
      ],
      "name": "pickRandomFirstWord",
      "outputs": [
        {
          "internalType": "string",
          "name": "",
          "type": "string"
        }
      ],
      "stateMutability": "view",
      "type": "function"
    },
    {
      "inputs": [
        {
          "internalType": "uint256",
          "name": "tokenId",
          "type": "uint256"
        }
      ],
      "name": "pickRandomSecondWord",
      "outputs": [
        {
          "internalType": "string",
          "name": "",
          "type": "string"
        }
      ],
      "stateMutability": "view",
      "type": "function"
    },
    {
      "inputs": [
        {
          "internalType": "uint256",
          "name": "tokenId",
          "type": "uint256"
        }
      ],
      "name": "pickRandomThirdWord",
      "outputs": [
        {
          "internalType": "string",
          "name": "",
          "type": "string"
        }
      ],
      "stateMutability": "view",
      "type": "function"
    },
    {
      "inputs": [
        {
          "internalType": "address",
          "name": "from",
          "type": "address"
        },
        {
          "internalType": "address",
          "name": "to",
          "type": "address"
        },
        {
          "internalType": "uint256",
          "name": "tokenId",
          "type": "uint256"
        }
      ],
      "name": "safeTransferFrom",
      "outputs": [],
      "stateMutability": "nonpayable",
      "type": "function"
    },
    {
      "inputs": [
        {
          "internalType": "address",
          "name": "from",
          "type": "address"
        },
        {
          "internalType": "address",
          "name": "to",
          "type": "address"
        },
        {
          "internalType": "uint256",
          "name": "tokenId",
          "type": "uint256"
        },
        {
          "internalType": "bytes",
          "name": "_data",
          "type": "bytes"
        }
      ],
      "name": "safeTransferFrom",
      "outputs": [],
      "stateMutability": "nonpayable",
      "type": "function"
    },
    {
      "inputs": [
        {
          "internalType": "address",
          "name": "operator",
          "type": "address"
        },
        {
          "internalType": "bool",
          "name": "approved",
          "type": "bool"
        }
      ],
      "name": "setApprovalForAll",
      "outputs": [],
      "stateMutability": "nonpayable",
      "type": "function"
    },
    {
      "inputs": [
        {
          "internalType": "bytes4",
          "name": "interfaceId",
          "type": "bytes4"
        }
      ],
      "name": "supportsInterface",
      "outputs": [
        {
          "internalType": "bool",
          "name": "",
          "type": "bool"
        }
      ],
      "stateMutability": "view",
      "type": "function"
    },
    {
      "inputs": [],
      "name": "symbol",
      "outputs": [
        {
          "internalType": "string",
          "name": "",
          "type": "string"
        }
      ],
      "stateMutability": "view",
      "type": "function"
    },
    {
      "inputs": [
        {
          "internalType": "uint256",
          "name": "tokenId",
          "type": "uint256"
        }
      ],
      "name": "tokenURI",
      "outputs": [
        {
          "internalType": "string",
          "name": "",
          "type": "string"
        }
      ],
      "stateMutability": "view",
      "type": "function"
    },
    {
      "inputs": [
        {
          "internalType": "address",
          "name": "from",
          "type": "address"
        },
        {
          "internalType": "address",
          "name": "to",
          "type": "address"
        },
        {
          "internalType": "uint256",
          "name": "tokenId",
          "type": "uint256"
        }
      ],
      "name": "transferFrom",
      "outputs": [],
      "stateMutability": "nonpayable",
      "type": "function"
    }
  ],
  "bytecode": "0x608060405260405180610160016040528061012f81526020016200500361012f9139600890805190602001906200003892919062000e57565b506040518061020001604052806040518060400160405280600481526020017f4c696f6e0000000000000000000000000000000000000000000000000000000081525081526020016040518060400160405280600581526020017f536861726b00000000000000000000000000000000000000000000000000000081525081526020016040518060400160405280600581526020017f4c656d757200000000000000000000000000000000000000000000000000000081525081526020016040518060400160405280600881526020017f456c657068616e7400000000000000000000000000000000000000000000000081525081526020016040518060400160405280600381526020017f436f77000000000000000000000000000000000000000000000000000000000081525081526020016040518060400160405280600381526020017f446f67000000000000000000000000000000000000000000000000000000000081525081526020016040518060400160405280600481526020017f4c696f6e0000000000000000000000000000000000000000000000000000000081525081526020016040518060400160405280600581526020017f536861726b00000000000000000000000000000000000000000000000000000081525081526020016040518060400160405280600581526020017f4c656d757200000000000000000000000000000000000000000000000000000081525081526020016040518060400160405280600881526020017f456c657068616e7400000000000000000000000000000000000000000000000081525081526020016040518060400160405280600381526020017f436f77000000000000000000000000000000000000000000000000000000000081525081526020016040518060400160405280600381526020017f446f67000000000000000000000000000000000000000000000000000000000081525081526020016040518060400160405280600581526020017f4c656d757200000000000000000000000000000000000000000000000000000081525081526020016040518060400160405280600881526020017f456c657068616e7400000000000000000000000000000000000000000000000081525081526020016040518060400160405280600381526020017f436f77000000000000000000000000000000000000000000000000000000000081525081526020016040518060400160405280600381526020017f446f67000000000000000000000000000000000000000000000000000000000081525081525060099060106200040592919062000ee8565b506040518061024001604052806040518060400160405280600681526020017f6c6175676873000000000000000000000000000000000000000000000000000081525081526020016040518060400160405280600881526020017f627265617468657300000000000000000000000000000000000000000000000081525081526020016040518060400160405280600681526020017f6472696e6b73000000000000000000000000000000000000000000000000000081525081526020016040518060400160405280600681526020017f637261776c73000000000000000000000000000000000000000000000000000081525081526020016040518060400160405280600581526020017f686f776c7300000000000000000000000000000000000000000000000000000081525081526020016040518060400160405280600581526020017f6a756d707300000000000000000000000000000000000000000000000000000081525081526020016040518060400160405280600681526020017f6c6175676873000000000000000000000000000000000000000000000000000081525081526020016040518060400160405280600881526020017f627265617468657300000000000000000000000000000000000000000000000081525081526020016040518060400160405280600681526020017f6472696e6b73000000000000000000000000000000000000000000000000000081525081526020016040518060400160405280600681526020017f637261776c73000000000000000000000000000000000000000000000000000081525081526020016040518060400160405280600581526020017f686f776c7300000000000000000000000000000000000000000000000000000081525081526020016040518060400160405280600581526020017f6a756d707300000000000000000000000000000000000000000000000000000081525081526020016040518060400160405280600681526020017f6c6175676873000000000000000000000000000000000000000000000000000081525081526020016040518060400160405280600881526020017f627265617468657300000000000000000000000000000000000000000000000081525081526020016040518060400160405280600681526020017f6472696e6b73000000000000000000000000000000000000000000000000000081525081526020016040518060400160405280600681526020017f637261776c73000000000000000000000000000000000000000000000000000081525081526020016040518060400160405280600581526020017f686f776c7300000000000000000000000000000000000000000000000000000081525081526020016040518060400160405280600581526020017f6a756d7073000000000000000000000000000000000000000000000000000000815250815250600a9060126200084892919062000f4f565b506040518061024001604052806040518060400160405280600481526020017f6f7665720000000000000000000000000000000000000000000000000000000081525081526020016040518060400160405280600781526020017f68656176696c790000000000000000000000000000000000000000000000000081525081526020016040518060400160405280600a81526020017f6665766572656e746c790000000000000000000000000000000000000000000081525081526020016040518060400160405280600781526020017f717569636b6c790000000000000000000000000000000000000000000000000081525081526020016040518060400160405280600a81526020017f63726561746976656c790000000000000000000000000000000000000000000081525081526020016040518060400160405280600a81526020017f63617574696f75736c790000000000000000000000000000000000000000000081525081526020016040518060400160405280600481526020017f6f7665720000000000000000000000000000000000000000000000000000000081525081526020016040518060400160405280600781526020017f68656176696c790000000000000000000000000000000000000000000000000081525081526020016040518060400160405280600a81526020017f6665766572656e746c790000000000000000000000000000000000000000000081525081526020016040518060400160405280600781526020017f717569636b6c790000000000000000000000000000000000000000000000000081525081526020016040518060400160405280600a81526020017f63726561746976656c790000000000000000000000000000000000000000000081525081526020016040518060400160405280600a81526020017f63617574696f75736c790000000000000000000000000000000000000000000081525081526020016040518060400160405280600481526020017f6f7665720000000000000000000000000000000000000000000000000000000081525081526020016040518060400160405280600781526020017f68656176696c790000000000000000000000000000000000000000000000000081525081526020016040518060400160405280600a81526020017f6665766572656e746c790000000000000000000000000000000000000000000081525081526020016040518060400160405280600781526020017f717569636b6c790000000000000000000000000000000000000000000000000081525081526020016040518060400160405280600a81526020017f63726561746976656c790000000000000000000000000000000000000000000081525081526020016040518060400160405280600a81526020017f63617574696f75736c7900000000000000000000000000000000000000000000815250815250600b90601262000c8b92919062000f4f565b5034801562000c9957600080fd5b506040518060400160405280600981526020017f436972636c654e465400000000000000000000000000000000000000000000008152506040518060400160405280600681526020017f434952434c450000000000000000000000000000000000000000000000000000815250816000908051906020019062000d1e92919062000e57565b50806001908051906020019062000d3792919062000e57565b50505062000d856040518060400160405280601581526020017f436f6e747261637420636f6e737472756374656421000000000000000000000081525062000d8b60201b620013fe1760201c565b62001170565b62000e2b8160405160240162000da2919062001084565b6040516020818303038152906040527f41304fac000000000000000000000000000000000000000000000000000000007bffffffffffffffffffffffffffffffffffffffffffffffffffffffff19166020820180517bffffffffffffffffffffffffffffffffffffffffffffffffffffffff838183161783525050505062000e2e60201b60201c565b50565b60008151905060006a636f6e736f6c652e6c6f679050602083016000808483855afa5050505050565b82805462000e6590620010fa565b90600052602060002090601f01602090048101928262000e89576000855562000ed5565b82601f1062000ea457805160ff191683800117855562000ed5565b8280016001018555821562000ed5579182015b8281111562000ed457825182559160200191906001019062000eb7565b5b50905062000ee4919062000fb6565b5090565b82805482825590600052602060002090810192821562000f3c579160200282015b8281111562000f3b57825182908051906020019062000f2a92919062000e57565b509160200191906001019062000f09565b5b50905062000f4b919062000fd5565b5090565b82805482825590600052602060002090810192821562000fa3579160200282015b8281111562000fa257825182908051906020019062000f9192919062000e57565b509160200191906001019062000f70565b5b50905062000fb2919062000fd5565b5090565b5b8082111562000fd157600081600090555060010162000fb7565b5090565b5b8082111562000ff9576000818162000fef919062000ffd565b5060010162000fd6565b5090565b5080546200100b90620010fa565b6000825580601f106200101f575062001040565b601f0160209004906000526020600020908101906200103f919062000fb6565b5b50565b60006200105082620010a8565b6200105c8185620010b3565b93506200106e818560208601620010c4565b62001079816200115f565b840191505092915050565b60006020820190508181036000830152620010a0818462001043565b905092915050565b600081519050919050565b600082825260208201905092915050565b60005b83811015620010e4578082015181840152602081019050620010c7565b83811115620010f4576000848401525b50505050565b600060028204905060018216806200111357607f821691505b602082108114156200112a576200112962001130565b5b50919050565b7f4e487b7100000000000000000000000000000000000000000000000000000000600052602260045260246000fd5b6000601f19601f8301169050919050565b613e8380620011806000396000f3fe608060405234801561001057600080fd5b506004361061010b5760003560e01c80636352211e116100a2578063b187301f11610071578063b187301f146102b6578063b88d4fde146102e6578063c575757a14610302578063c87b56dd14610332578063e985e9c5146103625761010b565b80636352211e1461021c57806370a082311461024c57806395d89b411461027c578063a22cb4651461029a5761010b565b806323b872dd116100de57806323b872dd146101aa5780632de38d68146101c657806342842e0e146101f657806362b41f49146102125761010b565b806301ffc9a71461011057806306fdde0314610140578063081812fc1461015e578063095ea7b31461018e575b600080fd5b61012a600480360381019061012591906128c6565b610392565b6040516101379190613015565b60405180910390f35b610148610474565b6040516101559190613030565b60405180910390f35b61017860048036038101906101739190612918565b610506565b6040516101859190612f85565b60405180910390f35b6101a860048036038101906101a3919061288a565b61058b565b005b6101c460048036038101906101bf9190612784565b6106a3565b005b6101e060048036038101906101db9190612918565b610703565b6040516101ed9190613030565b60405180910390f35b610210600480360381019061020b9190612784565b61092c565b005b61021a61094c565b005b61023660048036038101906102319190612918565b610b52565b6040516102439190612f85565b60405180910390f35b6102666004803603810190610261919061271f565b610c04565b60405161027391906132c7565b60405180910390f35b610284610cbc565b6040516102919190613030565b60405180910390f35b6102b460048036038101906102af919061284e565b610d4e565b005b6102d060048036038101906102cb9190612918565b610d64565b6040516102dd9190613030565b60405180910390f35b61030060048036038101906102fb91906127d3565b610f8d565b005b61031c60048036038101906103179190612918565b610fef565b6040516103299190613030565b60405180910390f35b61034c60048036038101906103479190612918565b611218565b6040516103599190613030565b60405180910390f35b61037c60048036038101906103779190612748565b61136a565b6040516103899190613015565b60405180910390f35b60007f80ac58cd000000000000000000000000000000000000000000000000000000007bffffffffffffffffffffffffffffffffffffffffffffffffffffffff1916827bffffffffffffffffffffffffffffffffffffffffffffffffffffffff1916148061045d57507f5b5e139f000000000000000000000000000000000000000000000000000000007bffffffffffffffffffffffffffffffffffffffffffffffffffffffff1916827bffffffffffffffffffffffffffffffffffffffffffffffffffffffff1916145b8061046d575061046c82611497565b5b9050919050565b6060600080546104839061355b565b80601f01602080910402602001604051908101604052809291908181526020018280546104af9061355b565b80156104fc5780601f106104d1576101008083540402835291602001916104fc565b820191906000526020600020905b8154815290600101906020018083116104df57829003601f168201915b5050505050905090565b600061051182611501565b610550576040517f08c379a000000000000000000000000000000000000000000000000000000000815260040161054790613247565b60405180910390fd5b6004600083815260200190815260200160002060009054906101000a900473ffffffffffffffffffffffffffffffffffffffff169050919050565b600061059682610b52565b90508073ffffffffffffffffffffffffffffffffffffffff168373ffffffffffffffffffffffffffffffffffffffff161415610607576040517f08c379a00000000000000000000000000000000000000000000000000000000081526004016105fe90613287565b60405180910390fd5b8073ffffffffffffffffffffffffffffffffffffffff1661062661156d565b73ffffffffffffffffffffffffffffffffffffffff16148061065557506106548161064f61156d565b61136a565b5b610694576040517f08c379a000000000000000000000000000000000000000000000000000000000815260040161068b90613187565b60405180910390fd5b61069e8383611575565b505050565b6106b46106ae61156d565b8261162e565b6106f3576040517f08c379a00000000000000000000000000000000000000000000000000000000081526004016106ea906132a7565b60405180910390fd5b6106fe83838361170c565b505050565b6060600061073761071384611973565b6040516020016107239190612f41565b604051602081830303815290604052611b20565b90506009805490508161074a9190613607565b90506108576040518060400160405280601081526020017f6669727374576f7264735b72616e645d00000000000000000000000000000000815250600983815481106107bf577f4e487b7100000000000000000000000000000000000000000000000000000000600052603260045260246000fd5b9060005260206000200180546107d49061355b565b80601f01602080910402602001604051908101604052809291908181526020018280546108009061355b565b801561084d5780601f106108225761010080835404028352916020019161084d565b820191906000526020600020905b81548152906001019060200180831161083057829003601f168201915b5050505050611b53565b60098181548110610891577f4e487b7100000000000000000000000000000000000000000000000000000000600052603260045260246000fd5b9060005260206000200180546108a69061355b565b80601f01602080910402602001604051908101604052809291908181526020018280546108d29061355b565b801561091f5780601f106108f45761010080835404028352916020019161091f565b820191906000526020600020905b81548152906001019060200180831161090257829003601f168201915b5050505050915050919050565b61094783838360405180602001604052806000815250610f8d565b505050565b60006109586007611bef565b9050600061096582610703565b9050600061097283610d64565b9050600061097f84610fef565b9050600083838360405160200161099893929190612e36565b604051602081830303815290604052905060006008826040516020016109bf929190612e67565b60405160208183030381529060405290506000610a04836109df84611bfd565b6040516020016109f0929190612efc565b604051602081830303815290604052611bfd565b9050600081604051602001610a199190612f63565b6040516020818303038152906040529050610a686040518060400160405280601581526020017f0a2d2d2d2d2d2d2d2d2d2d2d2d2d2d2d2d2d2d2d2d00000000000000000000008152506113fe565b610a9081604051602001610a7c9190612e96565b6040516020818303038152906040526113fe565b610ace6040518060400160405280601581526020017f2d2d2d2d2d2d2d2d2d2d2d2d2d2d2d2d2d2d2d2d0a00000000000000000000008152506113fe565b610ad83389611dbb565b610ae28882611dd9565b610aec6007611e4d565b610b0f604051806060016040528060258152602001613de9602591398933611e63565b7febb98688741ffa4c7589bf325de30cf7becb63de567842e1ccdb6cb949fdc82c3389604051610b40929190612fec565b60405180910390a15050505050505050565b6000806002600084815260200190815260200160002060009054906101000a900473ffffffffffffffffffffffffffffffffffffffff169050600073ffffffffffffffffffffffffffffffffffffffff168173ffffffffffffffffffffffffffffffffffffffff161415610bfb576040517f08c379a0000000000000000000000000000000000000000000000000000000008152600401610bf2906131c7565b60405180910390fd5b80915050919050565b60008073ffffffffffffffffffffffffffffffffffffffff168273ffffffffffffffffffffffffffffffffffffffff161415610c75576040517f08c379a0000000000000000000000000000000000000000000000000000000008152600401610c6c906131a7565b60405180910390fd5b600360008373ffffffffffffffffffffffffffffffffffffffff1673ffffffffffffffffffffffffffffffffffffffff168152602001908152602001600020549050919050565b606060018054610ccb9061355b565b80601f0160208091040260200160405190810160405280929190818152602001828054610cf79061355b565b8015610d445780601f10610d1957610100808354040283529160200191610d44565b820191906000526020600020905b815481529060010190602001808311610d2757829003601f168201915b5050505050905090565b610d60610d5961156d565b8383611f02565b5050565b60606000610d98610d7484611973565b604051602001610d849190612eda565b604051602081830303815290604052611b20565b9050600a8054905081610dab9190613607565b9050610eb86040518060400160405280601181526020017f7365636f6e64576f7264735b72616e645d000000000000000000000000000000815250600a8381548110610e20577f4e487b7100000000000000000000000000000000000000000000000000000000600052603260045260246000fd5b906000526020600020018054610e359061355b565b80601f0160208091040260200160405190810160405280929190818152602001828054610e619061355b565b8015610eae5780601f10610e8357610100808354040283529160200191610eae565b820191906000526020600020905b815481529060010190602001808311610e9157829003601f168201915b5050505050611b53565b600a8181548110610ef2577f4e487b7100000000000000000000000000000000000000000000000000000000600052603260045260246000fd5b906000526020600020018054610f079061355b565b80601f0160208091040260200160405190810160405280929190818152602001828054610f339061355b565b8015610f805780601f10610f5557610100808354040283529160200191610f80565b820191906000526020600020905b815481529060010190602001808311610f6357829003601f168201915b5050505050915050919050565b610f9e610f9861156d565b8361162e565b610fdd576040517f08c379a0000000000000000000000000000000000000000000000000000000008152600401610fd4906132a7565b60405180910390fd5b610fe98484848461206f565b50505050565b60606000611023610fff84611973565b60405160200161100f9190612eb8565b604051602081830303815290604052611b20565b9050600b80549050816110369190613607565b90506111436040518060400160405280601081526020017f7468697264576f7264735b72616e645d00000000000000000000000000000000815250600b83815481106110ab577f4e487b7100000000000000000000000000000000000000000000000000000000600052603260045260246000fd5b9060005260206000200180546110c09061355b565b80601f01602080910402602001604051908101604052809291908181526020018280546110ec9061355b565b80156111395780601f1061110e57610100808354040283529160200191611139565b820191906000526020600020905b81548152906001019060200180831161111c57829003601f168201915b5050505050611b53565b600b818154811061117d577f4e487b7100000000000000000000000000000000000000000000000000000000600052603260045260246000fd5b9060005260206000200180546111929061355b565b80601f01602080910402602001604051908101604052809291908181526020018280546111be9061355b565b801561120b5780601f106111e05761010080835404028352916020019161120b565b820191906000526020600020905b8154815290600101906020018083116111ee57829003601f168201915b5050505050915050919050565b606061122382611501565b611262576040517f08c379a000000000000000000000000000000000000000000000000000000000815260040161125990613227565b60405180910390fd5b60006006600084815260200190815260200160002080546112829061355b565b80601f01602080910402602001604051908101604052809291908181526020018280546112ae9061355b565b80156112fb5780601f106112d0576101008083540402835291602001916112fb565b820191906000526020600020905b8154815290600101906020018083116112de57829003601f168201915b50505050509050600061130c6120cb565b9050600081511415611322578192505050611365565b60008251111561135757808260405160200161133f929190612e12565b60405160208183030381529060405292505050611365565b611360846120e2565b925050505b919050565b6000600560008473ffffffffffffffffffffffffffffffffffffffff1673ffffffffffffffffffffffffffffffffffffffff16815260200190815260200160002060008373ffffffffffffffffffffffffffffffffffffffff1673ffffffffffffffffffffffffffffffffffffffff16815260200190815260200160002060009054906101000a900460ff16905092915050565b611494816040516024016114129190613030565b6040516020818303038152906040527f41304fac000000000000000000000000000000000000000000000000000000007bffffffffffffffffffffffffffffffffffffffffffffffffffffffff19166020820180517bffffffffffffffffffffffffffffffffffffffffffffffffffffffff8381831617835250505050612189565b50565b60007f01ffc9a7000000000000000000000000000000000000000000000000000000007bffffffffffffffffffffffffffffffffffffffffffffffffffffffff1916827bffffffffffffffffffffffffffffffffffffffffffffffffffffffff1916149050919050565b60008073ffffffffffffffffffffffffffffffffffffffff166002600084815260200190815260200160002060009054906101000a900473ffffffffffffffffffffffffffffffffffffffff1673ffffffffffffffffffffffffffffffffffffffff1614159050919050565b600033905090565b816004600083815260200190815260200160002060006101000a81548173ffffffffffffffffffffffffffffffffffffffff021916908373ffffffffffffffffffffffffffffffffffffffff160217905550808273ffffffffffffffffffffffffffffffffffffffff166115e883610b52565b73ffffffffffffffffffffffffffffffffffffffff167f8c5be1e5ebec7d5bd14f71427d1e84f3dd0314c0f7b2291e5b200ac8c7c3b92560405160405180910390a45050565b600061163982611501565b611678576040517f08c379a000000000000000000000000000000000000000000000000000000000815260040161166f90613167565b60405180910390fd5b600061168383610b52565b90508073ffffffffffffffffffffffffffffffffffffffff168473ffffffffffffffffffffffffffffffffffffffff1614806116c557506116c4818561136a565b5b8061170357508373ffffffffffffffffffffffffffffffffffffffff166116eb84610506565b73ffffffffffffffffffffffffffffffffffffffff16145b91505092915050565b8273ffffffffffffffffffffffffffffffffffffffff1661172c82610b52565b73ffffffffffffffffffffffffffffffffffffffff1614611782576040517f08c379a0000000000000000000000000000000000000000000000000000000008152600401611779906130e7565b60405180910390fd5b600073ffffffffffffffffffffffffffffffffffffffff168273ffffffffffffffffffffffffffffffffffffffff1614156117f2576040517f08c379a00000000000000000000000000000000000000000000000000000000081526004016117e990613127565b60405180910390fd5b6117fd8383836121b2565b611808600082611575565b6001600360008573ffffffffffffffffffffffffffffffffffffffff1673ffffffffffffffffffffffffffffffffffffffff16815260200190815260200160002060008282546118589190613471565b925050819055506001600360008473ffffffffffffffffffffffffffffffffffffffff1673ffffffffffffffffffffffffffffffffffffffff16815260200190815260200160002060008282546118af9190613390565b92505081905550816002600083815260200190815260200160002060006101000a81548173ffffffffffffffffffffffffffffffffffffffff021916908373ffffffffffffffffffffffffffffffffffffffff160217905550808273ffffffffffffffffffffffffffffffffffffffff168473ffffffffffffffffffffffffffffffffffffffff167fddf252ad1be2c89b69c2b068fc378daa952ba7f163c4a11628f55a4df523b3ef60405160405180910390a461196e8383836121b7565b505050565b606060008214156119bb576040518060400160405280600181526020017f30000000000000000000000000000000000000000000000000000000000000008152509050611b1b565b600082905060005b600082146119ed5780806119d6906135be565b915050600a826119e691906133e6565b91506119c3565b60008167ffffffffffffffff811115611a2f577f4e487b7100000000000000000000000000000000000000000000000000000000600052604160045260246000fd5b6040519080825280601f01601f191660200182016040528015611a615781602001600182028036833780820191505090505b5090505b60008514611b1457600182611a7a9190613471565b9150600a85611a899190613607565b6030611a959190613390565b60f81b818381518110611ad1577f4e487b7100000000000000000000000000000000000000000000000000000000600052603260045260246000fd5b60200101907effffffffffffffffffffffffffffffffffffffffffffffffffffffffffffff1916908160001a905350600a85611b0d91906133e6565b9450611a65565b8093505050505b919050565b600081604051602001611b339190612dfb565b6040516020818303038152906040528051906020012060001c9050919050565b611beb8282604051602401611b69929190613052565b6040516020818303038152906040527f4b5c4277000000000000000000000000000000000000000000000000000000007bffffffffffffffffffffffffffffffffffffffffffffffffffffffff19166020820180517bffffffffffffffffffffffffffffffffffffffffffffffffffffffff8381831617835250505050612189565b5050565b600081600001549050919050565b60606000825190506000811415611c265760405180602001604052806000815250915050611db6565b60006003600283611c379190613390565b611c4191906133e6565b6004611c4d9190613417565b90506000602082611c5e9190613390565b67ffffffffffffffff811115611c9d577f4e487b7100000000000000000000000000000000000000000000000000000000600052604160045260246000fd5b6040519080825280601f01601f191660200182016040528015611ccf5781602001600182028036833780820191505090505b5090506000604051806060016040528060408152602001613e0e604091399050600181016020830160005b86811015611d735760038101905062ffffff818a015116603f8160121c168401518060081b905060ff603f83600c1c1686015116810190508060081b905060ff603f8360061c1686015116810190508060081b905060ff603f831686015116810190508060e01b90508084526004840193505050611cfa565b506003860660018114611d8d5760028114611d9d57611da8565b613d3d60f01b6002830352611da8565b603d60f81b60018303525b508484525050819450505050505b919050565b611dd58282604051806020016040528060008152506121bc565b5050565b611de282611501565b611e21576040517f08c379a0000000000000000000000000000000000000000000000000000000008152600401611e18906131e7565b60405180910390fd5b80600660008481526020019081526020016000209080519060200190611e489291906125ab565b505050565b6001816000016000828254019250508190555050565b611efd838383604051602401611e7b93929190613089565b6040516020818303038152906040527fe3849f79000000000000000000000000000000000000000000000000000000007bffffffffffffffffffffffffffffffffffffffffffffffffffffffff19166020820180517bffffffffffffffffffffffffffffffffffffffffffffffffffffffff8381831617835250505050612189565b505050565b8173ffffffffffffffffffffffffffffffffffffffff168373ffffffffffffffffffffffffffffffffffffffff161415611f71576040517f08c379a0000000000000000000000000000000000000000000000000000000008152600401611f6890613147565b60405180910390fd5b80600560008573ffffffffffffffffffffffffffffffffffffffff1673ffffffffffffffffffffffffffffffffffffffff16815260200190815260200160002060008473ffffffffffffffffffffffffffffffffffffffff1673ffffffffffffffffffffffffffffffffffffffff16815260200190815260200160002060006101000a81548160ff0219169083151502179055508173ffffffffffffffffffffffffffffffffffffffff168373ffffffffffffffffffffffffffffffffffffffff167f17307eab39ab6107e8899845ad3d59bd9653f200f220920489ca2b5937696c31836040516120629190613015565b60405180910390a3505050565b61207a84848461170c565b61208684848484612217565b6120c5576040517f08c379a00000000000000000000000000000000000000000000000000000000081526004016120bc906130c7565b60405180910390fd5b50505050565b606060405180602001604052806000815250905090565b60606120ed82611501565b61212c576040517f08c379a000000000000000000000000000000000000000000000000000000000815260040161212390613267565b60405180910390fd5b60006121366120cb565b905060008151116121565760405180602001604052806000815250612181565b8061216084611973565b604051602001612171929190612e12565b6040516020818303038152906040525b915050919050565b60008151905060006a636f6e736f6c652e6c6f679050602083016000808483855afa5050505050565b505050565b505050565b6121c683836123ae565b6121d36000848484612217565b612212576040517f08c379a0000000000000000000000000000000000000000000000000000000008152600401612209906130c7565b60405180910390fd5b505050565b60006122388473ffffffffffffffffffffffffffffffffffffffff16612588565b156123a1578373ffffffffffffffffffffffffffffffffffffffff1663150b7a0261226161156d565b8786866040518563ffffffff1660e01b81526004016122839493929190612fa0565b602060405180830381600087803b15801561229d57600080fd5b505af19250505080156122ce57506040513d601f19601f820116820180604052508101906122cb91906128ef565b60015b612351573d80600081146122fe576040519150601f19603f3d011682016040523d82523d6000602084013e612303565b606091505b50600081511415612349576040517f08c379a0000000000000000000000000000000000000000000000000000000008152600401612340906130c7565b60405180910390fd5b805181602001fd5b63150b7a0260e01b7bffffffffffffffffffffffffffffffffffffffffffffffffffffffff1916817bffffffffffffffffffffffffffffffffffffffffffffffffffffffff1916149150506123a6565b600190505b949350505050565b600073ffffffffffffffffffffffffffffffffffffffff168273ffffffffffffffffffffffffffffffffffffffff16141561241e576040517f08c379a000000000000000000000000000000000000000000000000000000000815260040161241590613207565b60405180910390fd5b61242781611501565b15612467576040517f08c379a000000000000000000000000000000000000000000000000000000000815260040161245e90613107565b60405180910390fd5b612473600083836121b2565b6001600360008473ffffffffffffffffffffffffffffffffffffffff1673ffffffffffffffffffffffffffffffffffffffff16815260200190815260200160002060008282546124c39190613390565b92505081905550816002600083815260200190815260200160002060006101000a81548173ffffffffffffffffffffffffffffffffffffffff021916908373ffffffffffffffffffffffffffffffffffffffff160217905550808273ffffffffffffffffffffffffffffffffffffffff16600073ffffffffffffffffffffffffffffffffffffffff167fddf252ad1be2c89b69c2b068fc378daa952ba7f163c4a11628f55a4df523b3ef60405160405180910390a4612584600083836121b7565b5050565b6000808273ffffffffffffffffffffffffffffffffffffffff163b119050919050565b8280546125b79061355b565b90600052602060002090601f0160209004810192826125d95760008555612620565b82601f106125f257805160ff1916838001178555612620565b82800160010185558215612620579182015b8281111561261f578251825591602001919060010190612604565b5b50905061262d9190612631565b5090565b5b8082111561264a576000816000905550600101612632565b5090565b600061266161265c84613307565b6132e2565b90508281526020810184848401111561267957600080fd5b612684848285613519565b509392505050565b60008135905061269b81613d8c565b92915050565b6000813590506126b081613da3565b92915050565b6000813590506126c581613dba565b92915050565b6000815190506126da81613dba565b92915050565b600082601f8301126126f157600080fd5b813561270184826020860161264e565b91505092915050565b60008135905061271981613dd1565b92915050565b60006020828403121561273157600080fd5b600061273f8482850161268c565b91505092915050565b6000806040838503121561275b57600080fd5b60006127698582860161268c565b925050602061277a8582860161268c565b9150509250929050565b60008060006060848603121561279957600080fd5b60006127a78682870161268c565b93505060206127b88682870161268c565b92505060406127c98682870161270a565b9150509250925092565b600080600080608085870312156127e957600080fd5b60006127f78782880161268c565b94505060206128088782880161268c565b93505060406128198782880161270a565b925050606085013567ffffffffffffffff81111561283657600080fd5b612842878288016126e0565b91505092959194509250565b6000806040838503121561286157600080fd5b600061286f8582860161268c565b9250506020612880858286016126a1565b9150509250929050565b6000806040838503121561289d57600080fd5b60006128ab8582860161268c565b92505060206128bc8582860161270a565b9150509250929050565b6000602082840312156128d857600080fd5b60006128e6848285016126b6565b91505092915050565b60006020828403121561290157600080fd5b600061290f848285016126cb565b91505092915050565b60006020828403121561292a57600080fd5b60006129388482850161270a565b91505092915050565b61294a816134a5565b82525050565b612959816134b7565b82525050565b600061296a8261334d565b6129748185613363565b9350612984818560208601613528565b61298d816136f4565b840191505092915050565b60006129a382613358565b6129ad8185613374565b93506129bd818560208601613528565b6129c6816136f4565b840191505092915050565b60006129dc82613358565b6129e68185613385565b93506129f6818560208601613528565b80840191505092915050565b60008154612a0f8161355b565b612a198186613385565b94506001821660008114612a345760018114612a4557612a78565b60ff19831686528186019350612a78565b612a4e85613338565b60005b83811015612a7057815481890152600182019150602081019050612a51565b838801955050505b50505092915050565b6000612a8e606383613385565b9150612a9982613705565b606382019050919050565b6000612ab1602583613385565b9150612abc826137a0565b602582019050919050565b6000612ad4603283613374565b9150612adf826137ef565b604082019050919050565b6000612af7602583613374565b9150612b028261383e565b604082019050919050565b6000612b1a601c83613374565b9150612b258261388d565b602082019050919050565b6000612b3d600a83613385565b9150612b48826138b6565b600a82019050919050565b6000612b60602483613374565b9150612b6b826138df565b604082019050919050565b6000612b83601983613374565b9150612b8e8261392e565b602082019050919050565b6000612ba6600b83613385565b9150612bb182613957565b600b82019050919050565b6000612bc9602c83613374565b9150612bd482613980565b604082019050919050565b6000612bec600d83613385565b9150612bf7826139cf565b600d82019050919050565b6000612c0f603883613374565b9150612c1a826139f8565b604082019050919050565b6000612c32602a83613374565b9150612c3d82613a47565b604082019050919050565b6000612c55602983613374565b9150612c6082613a96565b604082019050919050565b6000612c78602e83613374565b9150612c8382613ae5565b604082019050919050565b6000612c9b600283613385565b9150612ca682613b34565b600282019050919050565b6000612cbe602083613374565b9150612cc982613b5d565b602082019050919050565b6000612ce1603183613374565b9150612cec82613b86565b604082019050919050565b6000612d04602c83613374565b9150612d0f82613bd5565b604082019050919050565b6000612d27602f83613374565b9150612d3282613c24565b604082019050919050565b6000612d4a600a83613385565b9150612d5582613c73565b600a82019050919050565b6000612d6d602183613374565b9150612d7882613c9c565b604082019050919050565b6000612d90600a83613385565b9150612d9b82613ceb565b600a82019050919050565b6000612db3601d83613385565b9150612dbe82613d14565b601d82019050919050565b6000612dd6603183613374565b9150612de182613d3d565b604082019050919050565b612df58161350f565b82525050565b6000612e0782846129d1565b915081905092915050565b6000612e1e82856129d1565b9150612e2a82846129d1565b91508190509392505050565b6000612e4282866129d1565b9150612e4e82856129d1565b9150612e5a82846129d1565b9150819050949350505050565b6000612e738285612a02565b9150612e7f82846129d1565b9150612e8a82612bdf565b91508190509392505050565b6000612ea182612aa4565b9150612ead82846129d1565b915081905092915050565b6000612ec382612b30565b9150612ecf82846129d1565b915081905092915050565b6000612ee582612b99565b9150612ef182846129d1565b915081905092915050565b6000612f0782612d3d565b9150612f1382856129d1565b9150612f1e82612a81565b9150612f2a82846129d1565b9150612f3582612c8e565b91508190509392505050565b6000612f4c82612d83565b9150612f5882846129d1565b915081905092915050565b6000612f6e82612da6565b9150612f7a82846129d1565b915081905092915050565b6000602082019050612f9a6000830184612941565b92915050565b6000608082019050612fb56000830187612941565b612fc26020830186612941565b612fcf6040830185612dec565b8181036060830152612fe1818461295f565b905095945050505050565b60006040820190506130016000830185612941565b61300e6020830184612dec565b9392505050565b600060208201905061302a6000830184612950565b92915050565b6000602082019050818103600083015261304a8184612998565b905092915050565b6000604082019050818103600083015261306c8185612998565b905081810360208301526130808184612998565b90509392505050565b600060608201905081810360008301526130a38186612998565b90506130b26020830185612dec565b6130bf6040830184612941565b949350505050565b600060208201905081810360008301526130e081612ac7565b9050919050565b6000602082019050818103600083015261310081612aea565b9050919050565b6000602082019050818103600083015261312081612b0d565b9050919050565b6000602082019050818103600083015261314081612b53565b9050919050565b6000602082019050818103600083015261316081612b76565b9050919050565b6000602082019050818103600083015261318081612bbc565b9050919050565b600060208201905081810360008301526131a081612c02565b9050919050565b600060208201905081810360008301526131c081612c25565b9050919050565b600060208201905081810360008301526131e081612c48565b9050919050565b6000602082019050818103600083015261320081612c6b565b9050919050565b6000602082019050818103600083015261322081612cb1565b9050919050565b6000602082019050818103600083015261324081612cd4565b9050919050565b6000602082019050818103600083015261326081612cf7565b9050919050565b6000602082019050818103600083015261328081612d1a565b9050919050565b600060208201905081810360008301526132a081612d60565b9050919050565b600060208201905081810360008301526132c081612dc9565b9050919050565b60006020820190506132dc6000830184612dec565b92915050565b60006132ec6132fd565b90506132f8828261358d565b919050565b6000604051905090565b600067ffffffffffffffff821115613322576133216136c5565b5b61332b826136f4565b9050602081019050919050565b60008190508160005260206000209050919050565b600081519050919050565b600081519050919050565b600082825260208201905092915050565b600082825260208201905092915050565b600081905092915050565b600061339b8261350f565b91506133a68361350f565b9250827fffffffffffffffffffffffffffffffffffffffffffffffffffffffffffffffff038211156133db576133da613638565b5b828201905092915050565b60006133f18261350f565b91506133fc8361350f565b92508261340c5761340b613667565b5b828204905092915050565b60006134228261350f565b915061342d8361350f565b9250817fffffffffffffffffffffffffffffffffffffffffffffffffffffffffffffffff048311821515161561346657613465613638565b5b828202905092915050565b600061347c8261350f565b91506134878361350f565b92508282101561349a57613499613638565b5b828203905092915050565b60006134b0826134ef565b9050919050565b60008115159050919050565b60007fffffffff0000000000000000000000000000000000000000000000000000000082169050919050565b600073ffffffffffffffffffffffffffffffffffffffff82169050919050565b6000819050919050565b82818337600083830152505050565b60005b8381101561354657808201518184015260208101905061352b565b83811115613555576000848401525b50505050565b6000600282049050600182168061357357607f821691505b6020821081141561358757613586613696565b5b50919050565b613596826136f4565b810181811067ffffffffffffffff821117156135b5576135b46136c5565b5b80604052505050565b60006135c98261350f565b91507fffffffffffffffffffffffffffffffffffffffffffffffffffffffffffffffff8214156135fc576135fb613638565b5b600182019050919050565b60006136128261350f565b915061361d8361350f565b92508261362d5761362c613667565b5b828206905092915050565b7f4e487b7100000000000000000000000000000000000000000000000000000000600052601160045260246000fd5b7f4e487b7100000000000000000000000000000000000000000000000000000000600052601260045260246000fd5b7f4e487b7100000000000000000000000000000000000000000000000000000000600052602260045260246000fd5b7f4e487b7100000000000000000000000000000000000000000000000000000000600052604160045260246000fd5b6000601f19601f8301169050919050565b7f222c20226465736372697074696f6e223a20224120686967686c79206163636c60008201527f61696d656420636f6c6c656374696f6e206f6620636972636c65732e222c202260208201527f696d616765223a2022646174613a696d6167652f7376672b786d6c3b6261736560408201527f36342c0000000000000000000000000000000000000000000000000000000000606082015250565b7f68747470733a2f2f6e6674707265766965772e30786465762e636f6465732f3f60008201527f636f64653d000000000000000000000000000000000000000000000000000000602082015250565b7f4552433732313a207472616e7366657220746f206e6f6e20455243373231526560008201527f63656976657220696d706c656d656e7465720000000000000000000000000000602082015250565b7f4552433732313a207472616e736665722066726f6d20696e636f72726563742060008201527f6f776e6572000000000000000000000000000000000000000000000000000000602082015250565b7f4552433732313a20746f6b656e20616c7265616479206d696e74656400000000600082015250565b7f54484952445f574f524400000000000000000000000000000000000000000000600082015250565b7f4552433732313a207472616e7366657220746f20746865207a65726f2061646460008201527f7265737300000000000000000000000000000000000000000000000000000000602082015250565b7f4552433732313a20617070726f766520746f2063616c6c657200000000000000600082015250565b7f5345434f4e445f574f5244000000000000000000000000000000000000000000600082015250565b7f4552433732313a206f70657261746f7220717565727920666f72206e6f6e657860008201527f697374656e7420746f6b656e0000000000000000000000000000000000000000602082015250565b7f3c2f746578743e3c2f7376673e00000000000000000000000000000000000000600082015250565b7f4552433732313a20617070726f76652063616c6c6572206973206e6f74206f7760008201527f6e6572206e6f7220617070726f76656420666f7220616c6c0000000000000000602082015250565b7f4552433732313a2062616c616e636520717565727920666f7220746865207a6560008201527f726f206164647265737300000000000000000000000000000000000000000000602082015250565b7f4552433732313a206f776e657220717565727920666f72206e6f6e657869737460008201527f656e7420746f6b656e0000000000000000000000000000000000000000000000602082015250565b7f45524337323155524953746f726167653a2055524920736574206f66206e6f6e60008201527f6578697374656e7420746f6b656e000000000000000000000000000000000000602082015250565b7f227d000000000000000000000000000000000000000000000000000000000000600082015250565b7f4552433732313a206d696e7420746f20746865207a65726f2061646472657373600082015250565b7f45524337323155524953746f726167653a2055524920717565727920666f722060008201527f6e6f6e6578697374656e7420746f6b656e000000000000000000000000000000602082015250565b7f4552433732313a20617070726f76656420717565727920666f72206e6f6e657860008201527f697374656e7420746f6b656e0000000000000000000000000000000000000000602082015250565b7f4552433732314d657461646174613a2055524920717565727920666f72206e6f60008201527f6e6578697374656e7420746f6b656e0000000000000000000000000000000000602082015250565b7f7b226e616d65223a202200000000000000000000000000000000000000000000600082015250565b7f4552433732313a20617070726f76616c20746f2063757272656e74206f776e6560008201527f7200000000000000000000000000000000000000000000000000000000000000602082015250565b7f46495253545f574f524400000000000000000000000000000000000000000000600082015250565b7f646174613a6170706c69636174696f6e2f6a736f6e3b6261736536342c000000600082015250565b7f4552433732313a207472616e736665722063616c6c6572206973206e6f74206f60008201527f776e6572206e6f7220617070726f766564000000000000000000000000000000602082015250565b613d95816134a5565b8114613da057600080fd5b50565b613dac816134b7565b8114613db757600080fd5b50565b613dc3816134c3565b8114613dce57600080fd5b50565b613dda8161350f565b8114613de557600080fd5b5056fe416e204e465420772f20494420257320686173206265656e206d696e74656420746f2025734142434445464748494a4b4c4d4e4f505152535455565758595a6162636465666768696a6b6c6d6e6f707172737475767778797a303132333435363738392b2fa264697066735822122095ae8688429aaebce440230c31cd0dc9a8ddc6661d8c4f772aa88ddec7ff0c2864736f6c634300080100333c73766720786d6c6e733d27687474703a2f2f7777772e77332e6f72672f323030302f73766727207072657365727665417370656374526174696f3d27784d696e594d696e206d656574272076696577426f783d273020302033353020333530273e3c7374796c653e2e62617365207b2066696c6c3a2077686974653b20666f6e742d66616d696c793a2073657269663b20666f6e742d73697a653a20323470783b207d3c2f7374796c653e3c726563742077696474683d273130302527206865696768743d2731303025272066696c6c3d27626c61636b27202f3e3c7465787420783d273530252720793d273530252720636c6173733d27626173652720646f6d696e616e742d626173656c696e653d276d6964646c652720746578742d616e63686f723d276d6964646c65273e",
  "linkReferences": {},
  "deployedLinkReferences": {}
}