{
  "_format": "hh-sol-artifact-1",
  "contractName": "EpicNFT",
  "sourceName": "contracts/epicNFT.sol",
  "abi": [
    {
      "inputs": [],
      "stateMutability": "nonpayable",
      "type": "constructor"
    },
    {
      "anonymous": false,
      "inputs": [
        {
          "indexed": true,
          "internalType": "address",
          "name": "owner",
          "type": "address"
        },
        {
          "indexed": true,
          "internalType": "address",
          "name": "approved",
          "type": "address"
        },
        {
          "indexed": true,
          "internalType": "uint256",
          "name": "tokenId",
          "type": "uint256"
        }
      ],
      "name": "Approval",
      "type": "event"
    },
    {
      "anonymous": false,
      "inputs": [
        {
          "indexed": true,
          "internalType": "address",
          "name": "owner",
          "type": "address"
        },
        {
          "indexed": true,
          "internalType": "address",
          "name": "operator",
          "type": "address"
        },
        {
          "indexed": false,
          "internalType": "bool",
          "name": "approved",
          "type": "bool"
        }
      ],
      "name": "ApprovalForAll",
      "type": "event"
    },
    {
      "anonymous": false,
      "inputs": [
        {
          "indexed": false,
          "internalType": "address",
          "name": "sender",
          "type": "address"
        },
        {
          "indexed": false,
          "internalType": "uint256",
          "name": "tokenId",
          "type": "uint256"
        }
      ],
      "name": "NewEpicNFTMinted",
      "type": "event"
    },
    {
      "anonymous": false,
      "inputs": [
        {
          "indexed": true,
          "internalType": "address",
          "name": "from",
          "type": "address"
        },
        {
          "indexed": true,
          "internalType": "address",
          "name": "to",
          "type": "address"
        },
        {
          "indexed": true,
          "internalType": "uint256",
          "name": "tokenId",
          "type": "uint256"
        }
      ],
      "name": "Transfer",
      "type": "event"
    },
    {
      "inputs": [
        {
          "internalType": "address",
          "name": "to",
          "type": "address"
        },
        {
          "internalType": "uint256",
          "name": "tokenId",
          "type": "uint256"
        }
      ],
      "name": "approve",
      "outputs": [],
      "stateMutability": "nonpayable",
      "type": "function"
    },
    {
      "inputs": [
        {
          "internalType": "address",
          "name": "owner",
          "type": "address"
        }
      ],
      "name": "balanceOf",
      "outputs": [
        {
          "internalType": "uint256",
          "name": "",
          "type": "uint256"
        }
      ],
      "stateMutability": "view",
      "type": "function"
    },
    {
      "inputs": [
        {
          "internalType": "uint256",
          "name": "tokenId",
          "type": "uint256"
        }
      ],
      "name": "getApproved",
      "outputs": [
        {
          "internalType": "address",
          "name": "",
          "type": "address"
        }
      ],
      "stateMutability": "view",
      "type": "function"
    },
    {
      "inputs": [
        {
          "internalType": "address",
          "name": "owner",
          "type": "address"
        },
        {
          "internalType": "address",
          "name": "operator",
          "type": "address"
        }
      ],
      "name": "isApprovedForAll",
      "outputs": [
        {
          "internalType": "bool",
          "name": "",
          "type": "bool"
        }
      ],
      "stateMutability": "view",
      "type": "function"
    },
    {
      "inputs": [],
      "name": "makeEpicNFT",
      "outputs": [],
      "stateMutability": "nonpayable",
      "type": "function"
    },
    {
      "inputs": [],
      "name": "name",
      "outputs": [
        {
          "internalType": "string",
          "name": "",
          "type": "string"
        }
      ],
      "stateMutability": "view",
      "type": "function"
    },
    {
      "inputs": [
        {
          "internalType": "uint256",
          "name": "tokenId",
          "type": "uint256"
        }
      ],
      "name": "ownerOf",
      "outputs": [
        {
          "internalType": "address",
          "name": "",
          "type": "address"
        }
      ],
      "stateMutability": "view",
      "type": "function"
    },
    {
      "inputs": [
        {
          "internalType": "uint256",
          "name": "tokenId",
          "type": "uint256"
        }
      ],
      "name": "pickRandomColor",
      "outputs": [
        {
          "internalType": "string",
          "name": "",
          "type": "string"
        }
      ],
      "stateMutability": "view",
      "type": "function"
    },
    {
      "inputs": [
        {
          "internalType": "uint256",
          "name": "tokenId",
          "type": "uint256"
        }
      ],
      "name": "pickRandomFirstWord",
      "outputs": [
        {
          "internalType": "string",
          "name": "",
          "type": "string"
        }
      ],
      "stateMutability": "view",
      "type": "function"
    },
    {
      "inputs": [
        {
          "internalType": "uint256",
          "name": "tokenId",
          "type": "uint256"
        }
      ],
      "name": "pickRandomSecondWord",
      "outputs": [
        {
          "internalType": "string",
          "name": "",
          "type": "string"
        }
      ],
      "stateMutability": "view",
      "type": "function"
    },
    {
      "inputs": [
        {
          "internalType": "uint256",
          "name": "tokenId",
          "type": "uint256"
        }
      ],
      "name": "pickRandomThirdWord",
      "outputs": [
        {
          "internalType": "string",
          "name": "",
          "type": "string"
        }
      ],
      "stateMutability": "view",
      "type": "function"
    },
    {
      "inputs": [
        {
          "internalType": "address",
          "name": "from",
          "type": "address"
        },
        {
          "internalType": "address",
          "name": "to",
          "type": "address"
        },
        {
          "internalType": "uint256",
          "name": "tokenId",
          "type": "uint256"
        }
      ],
      "name": "safeTransferFrom",
      "outputs": [],
      "stateMutability": "nonpayable",
      "type": "function"
    },
    {
      "inputs": [
        {
          "internalType": "address",
          "name": "from",
          "type": "address"
        },
        {
          "internalType": "address",
          "name": "to",
          "type": "address"
        },
        {
          "internalType": "uint256",
          "name": "tokenId",
          "type": "uint256"
        },
        {
          "internalType": "bytes",
          "name": "_data",
          "type": "bytes"
        }
      ],
      "name": "safeTransferFrom",
      "outputs": [],
      "stateMutability": "nonpayable",
      "type": "function"
    },
    {
      "inputs": [
        {
          "internalType": "address",
          "name": "operator",
          "type": "address"
        },
        {
          "internalType": "bool",
          "name": "approved",
          "type": "bool"
        }
      ],
      "name": "setApprovalForAll",
      "outputs": [],
      "stateMutability": "nonpayable",
      "type": "function"
    },
    {
      "inputs": [
        {
          "internalType": "bytes4",
          "name": "interfaceId",
          "type": "bytes4"
        }
      ],
      "name": "supportsInterface",
      "outputs": [
        {
          "internalType": "bool",
          "name": "",
          "type": "bool"
        }
      ],
      "stateMutability": "view",
      "type": "function"
    },
    {
      "inputs": [],
      "name": "symbol",
      "outputs": [
        {
          "internalType": "string",
          "name": "",
          "type": "string"
        }
      ],
      "stateMutability": "view",
      "type": "function"
    },
    {
      "inputs": [
        {
          "internalType": "uint256",
          "name": "tokenId",
          "type": "uint256"
        }
      ],
      "name": "tokenURI",
      "outputs": [
        {
          "internalType": "string",
          "name": "",
          "type": "string"
        }
      ],
      "stateMutability": "view",
      "type": "function"
    },
    {
      "inputs": [
        {
          "internalType": "address",
          "name": "from",
          "type": "address"
        },
        {
          "internalType": "address",
          "name": "to",
          "type": "address"
        },
        {
          "internalType": "uint256",
          "name": "tokenId",
          "type": "uint256"
        }
      ],
      "name": "transferFrom",
      "outputs": [],
      "stateMutability": "nonpayable",
      "type": "function"
    }
  ],
  "bytecode": "0x608060405260405180610100016040528060d381526020016200540c60d39139600890805190602001906200003692919062001005565b50604051806080016040528060568152602001620054df60569139600990805190602001906200006892919062001005565b506040518061020001604052806040518060400160405280600481526020017f4c696f6e0000000000000000000000000000000000000000000000000000000081525081526020016040518060400160405280600581526020017f536861726b00000000000000000000000000000000000000000000000000000081525081526020016040518060400160405280600581526020017f4c656d757200000000000000000000000000000000000000000000000000000081525081526020016040518060400160405280600881526020017f456c657068616e7400000000000000000000000000000000000000000000000081525081526020016040518060400160405280600381526020017f436f77000000000000000000000000000000000000000000000000000000000081525081526020016040518060400160405280600381526020017f446f67000000000000000000000000000000000000000000000000000000000081525081526020016040518060400160405280600481526020017f4c696f6e0000000000000000000000000000000000000000000000000000000081525081526020016040518060400160405280600581526020017f536861726b00000000000000000000000000000000000000000000000000000081525081526020016040518060400160405280600581526020017f4c656d757200000000000000000000000000000000000000000000000000000081525081526020016040518060400160405280600881526020017f456c657068616e7400000000000000000000000000000000000000000000000081525081526020016040518060400160405280600381526020017f436f77000000000000000000000000000000000000000000000000000000000081525081526020016040518060400160405280600381526020017f446f67000000000000000000000000000000000000000000000000000000000081525081526020016040518060400160405280600581526020017f4c656d757200000000000000000000000000000000000000000000000000000081525081526020016040518060400160405280600881526020017f456c657068616e7400000000000000000000000000000000000000000000000081525081526020016040518060400160405280600381526020017f436f77000000000000000000000000000000000000000000000000000000000081525081526020016040518060400160405280600381526020017f446f670000000000000000000000000000000000000000000000000000000000815250815250600a9060106200043592919062001096565b506040518061024001604052806040518060400160405280600681526020017f6c6175676873000000000000000000000000000000000000000000000000000081525081526020016040518060400160405280600881526020017f627265617468657300000000000000000000000000000000000000000000000081525081526020016040518060400160405280600681526020017f6472696e6b73000000000000000000000000000000000000000000000000000081525081526020016040518060400160405280600681526020017f637261776c73000000000000000000000000000000000000000000000000000081525081526020016040518060400160405280600581526020017f686f776c7300000000000000000000000000000000000000000000000000000081525081526020016040518060400160405280600581526020017f6a756d707300000000000000000000000000000000000000000000000000000081525081526020016040518060400160405280600681526020017f6c6175676873000000000000000000000000000000000000000000000000000081525081526020016040518060400160405280600881526020017f627265617468657300000000000000000000000000000000000000000000000081525081526020016040518060400160405280600681526020017f6472696e6b73000000000000000000000000000000000000000000000000000081525081526020016040518060400160405280600681526020017f637261776c73000000000000000000000000000000000000000000000000000081525081526020016040518060400160405280600581526020017f686f776c7300000000000000000000000000000000000000000000000000000081525081526020016040518060400160405280600581526020017f6a756d707300000000000000000000000000000000000000000000000000000081525081526020016040518060400160405280600681526020017f6c6175676873000000000000000000000000000000000000000000000000000081525081526020016040518060400160405280600881526020017f627265617468657300000000000000000000000000000000000000000000000081525081526020016040518060400160405280600681526020017f6472696e6b73000000000000000000000000000000000000000000000000000081525081526020016040518060400160405280600681526020017f637261776c73000000000000000000000000000000000000000000000000000081525081526020016040518060400160405280600581526020017f686f776c7300000000000000000000000000000000000000000000000000000081525081526020016040518060400160405280600581526020017f6a756d7073000000000000000000000000000000000000000000000000000000815250815250600b90601262000878929190620010fd565b506040518061024001604052806040518060400160405280600481526020017f6f7665720000000000000000000000000000000000000000000000000000000081525081526020016040518060400160405280600781526020017f68656176696c790000000000000000000000000000000000000000000000000081525081526020016040518060400160405280600a81526020017f6665766572656e746c790000000000000000000000000000000000000000000081525081526020016040518060400160405280600781526020017f717569636b6c790000000000000000000000000000000000000000000000000081525081526020016040518060400160405280600a81526020017f63726561746976656c790000000000000000000000000000000000000000000081525081526020016040518060400160405280600a81526020017f63617574696f75736c790000000000000000000000000000000000000000000081525081526020016040518060400160405280600481526020017f6f7665720000000000000000000000000000000000000000000000000000000081525081526020016040518060400160405280600781526020017f68656176696c790000000000000000000000000000000000000000000000000081525081526020016040518060400160405280600a81526020017f6665766572656e746c790000000000000000000000000000000000000000000081525081526020016040518060400160405280600781526020017f717569636b6c790000000000000000000000000000000000000000000000000081525081526020016040518060400160405280600a81526020017f63726561746976656c790000000000000000000000000000000000000000000081525081526020016040518060400160405280600a81526020017f63617574696f75736c790000000000000000000000000000000000000000000081525081526020016040518060400160405280600481526020017f6f7665720000000000000000000000000000000000000000000000000000000081525081526020016040518060400160405280600781526020017f68656176696c790000000000000000000000000000000000000000000000000081525081526020016040518060400160405280600a81526020017f6665766572656e746c790000000000000000000000000000000000000000000081525081526020016040518060400160405280600781526020017f717569636b6c790000000000000000000000000000000000000000000000000081525081526020016040518060400160405280600a81526020017f63726561746976656c790000000000000000000000000000000000000000000081525081526020016040518060400160405280600a81526020017f63617574696f75736c7900000000000000000000000000000000000000000000815250815250600c90601262000cbb929190620010fd565b506040518060c001604052806040518060400160405280600381526020017f726564000000000000000000000000000000000000000000000000000000000081525081526020016040518060400160405280600781526020017f233038433241380000000000000000000000000000000000000000000000000081525081526020016040518060400160405280600581526020017f626c61636b00000000000000000000000000000000000000000000000000000081525081526020016040518060400160405280600681526020017f79656c6c6f77000000000000000000000000000000000000000000000000000081525081526020016040518060400160405280600481526020017f626c75650000000000000000000000000000000000000000000000000000000081525081526020016040518060400160405280600581526020017f677265656e000000000000000000000000000000000000000000000000000000815250815250600d90600662000e3992919062001164565b5034801562000e4757600080fd5b506040518060400160405280600981526020017f436972636c654e465400000000000000000000000000000000000000000000008152506040518060400160405280600681526020017f434952434c450000000000000000000000000000000000000000000000000000815250816000908051906020019062000ecc92919062001005565b50806001908051906020019062000ee592919062001005565b50505062000f336040518060400160405280601581526020017f436f6e747261637420636f6e737472756374656421000000000000000000000081525062000f3960201b6200156a1760201c565b62001385565b62000fd98160405160240162000f50919062001299565b6040516020818303038152906040527f41304fac000000000000000000000000000000000000000000000000000000007bffffffffffffffffffffffffffffffffffffffffffffffffffffffff19166020820180517bffffffffffffffffffffffffffffffffffffffffffffffffffffffff838183161783525050505062000fdc60201b60201c565b50565b60008151905060006a636f6e736f6c652e6c6f679050602083016000808483855afa5050505050565b82805462001013906200130f565b90600052602060002090601f01602090048101928262001037576000855562001083565b82601f106200105257805160ff191683800117855562001083565b8280016001018555821562001083579182015b828111156200108257825182559160200191906001019062001065565b5b509050620010929190620011cb565b5090565b828054828255906000526020600020908101928215620010ea579160200282015b82811115620010e9578251829080519060200190620010d892919062001005565b5091602001919060010190620010b7565b5b509050620010f99190620011ea565b5090565b82805482825590600052602060002090810192821562001151579160200282015b82811115620011505782518290805190602001906200113f92919062001005565b50916020019190600101906200111e565b5b509050620011609190620011ea565b5090565b828054828255906000526020600020908101928215620011b8579160200282015b82811115620011b7578251829080519060200190620011a692919062001005565b509160200191906001019062001185565b5b509050620011c79190620011ea565b5090565b5b80821115620011e6576000816000905550600101620011cc565b5090565b5b808211156200120e576000818162001204919062001212565b50600101620011eb565b5090565b50805462001220906200130f565b6000825580601f1062001234575062001255565b601f016020900490600052602060002090810190620012549190620011cb565b5b50565b60006200126582620012bd565b620012718185620012c8565b935062001283818560208601620012d9565b6200128e8162001374565b840191505092915050565b60006020820190508181036000830152620012b5818462001258565b905092915050565b600081519050919050565b600082825260208201905092915050565b60005b83811015620012f9578082015181840152602081019050620012dc565b8381111562001309576000848401525b50505050565b600060028204905060018216806200132857607f821691505b602082108114156200133f576200133e62001345565b5b50919050565b7f4e487b7100000000000000000000000000000000000000000000000000000000600052602260045260246000fd5b6000601f19601f8301169050919050565b61407780620013956000396000f3fe608060405234801561001057600080fd5b50600436106101165760003560e01c80636352211e116100a2578063b187301f11610071578063b187301f146102f1578063b88d4fde14610321578063c575757a1461033d578063c87b56dd1461036d578063e985e9c51461039d57610116565b80636352211e1461025757806370a082311461028757806395d89b41146102b7578063a22cb465146102d557610116565b806323b872dd116100e957806323b872dd146101b55780632de38d68146101d157806342842e0e14610201578063514dc8c61461021d57806362b41f491461024d57610116565b806301ffc9a71461011b57806306fdde031461014b578063081812fc14610169578063095ea7b314610199575b600080fd5b61013560048036038101906101309190612a32565b6103cd565b60405161014291906131e0565b60405180910390f35b6101536104af565b60405161016091906131fb565b60405180910390f35b610183600480360381019061017e9190612a84565b610541565b6040516101909190613150565b60405180910390f35b6101b360048036038101906101ae91906129f6565b6105c6565b005b6101cf60048036038101906101ca91906128f0565b6106de565b005b6101eb60048036038101906101e69190612a84565b61073e565b6040516101f891906131fb565b60405180910390f35b61021b600480360381019061021691906128f0565b610967565b005b61023760048036038101906102329190612a84565b610987565b60405161024491906131fb565b60405180910390f35b610255610aa5565b005b610271600480360381019061026c9190612a84565b610cbe565b60405161027e9190613150565b60405180910390f35b6102a1600480360381019061029c919061288b565b610d70565b6040516102ae9190613492565b60405180910390f35b6102bf610e28565b6040516102cc91906131fb565b60405180910390f35b6102ef60048036038101906102ea91906129ba565b610eba565b005b61030b60048036038101906103069190612a84565b610ed0565b60405161031891906131fb565b60405180910390f35b61033b6004803603810190610336919061293f565b6110f9565b005b61035760048036038101906103529190612a84565b61115b565b60405161036491906131fb565b60405180910390f35b61038760048036038101906103829190612a84565b611384565b60405161039491906131fb565b60405180910390f35b6103b760048036038101906103b291906128b4565b6114d6565b6040516103c491906131e0565b60405180910390f35b60007f80ac58cd000000000000000000000000000000000000000000000000000000007bffffffffffffffffffffffffffffffffffffffffffffffffffffffff1916827bffffffffffffffffffffffffffffffffffffffffffffffffffffffff1916148061049857507f5b5e139f000000000000000000000000000000000000000000000000000000007bffffffffffffffffffffffffffffffffffffffffffffffffffffffff1916827bffffffffffffffffffffffffffffffffffffffffffffffffffffffff1916145b806104a857506104a782611603565b5b9050919050565b6060600080546104be90613726565b80601f01602080910402602001604051908101604052809291908181526020018280546104ea90613726565b80156105375780601f1061050c57610100808354040283529160200191610537565b820191906000526020600020905b81548152906001019060200180831161051a57829003601f168201915b5050505050905090565b600061054c8261166d565b61058b576040517f08c379a000000000000000000000000000000000000000000000000000000000815260040161058290613412565b60405180910390fd5b6004600083815260200190815260200160002060009054906101000a900473ffffffffffffffffffffffffffffffffffffffff169050919050565b60006105d182610cbe565b90508073ffffffffffffffffffffffffffffffffffffffff168373ffffffffffffffffffffffffffffffffffffffff161415610642576040517f08c379a000000000000000000000000000000000000000000000000000000000815260040161063990613452565b60405180910390fd5b8073ffffffffffffffffffffffffffffffffffffffff166106616116d9565b73ffffffffffffffffffffffffffffffffffffffff161480610690575061068f8161068a6116d9565b6114d6565b5b6106cf576040517f08c379a00000000000000000000000000000000000000000000000000000000081526004016106c690613352565b60405180910390fd5b6106d983836116e1565b505050565b6106ef6106e96116d9565b8261179a565b61072e576040517f08c379a000000000000000000000000000000000000000000000000000000000815260040161072590613472565b60405180910390fd5b610739838383611878565b505050565b6060600061077261074e84611adf565b60405160200161075e91906130ea565b604051602081830303815290604052611c8c565b9050600a805490508161078591906137d2565b90506108926040518060400160405280601081526020017f6669727374576f7264735b72616e645d00000000000000000000000000000000815250600a83815481106107fa577f4e487b7100000000000000000000000000000000000000000000000000000000600052603260045260246000fd5b90600052602060002001805461080f90613726565b80601f016020809104026020016040519081016040528092919081815260200182805461083b90613726565b80156108885780601f1061085d57610100808354040283529160200191610888565b820191906000526020600020905b81548152906001019060200180831161086b57829003601f168201915b5050505050611cbf565b600a81815481106108cc577f4e487b7100000000000000000000000000000000000000000000000000000000600052603260045260246000fd5b9060005260206000200180546108e190613726565b80601f016020809104026020016040519081016040528092919081815260200182805461090d90613726565b801561095a5780601f1061092f5761010080835404028352916020019161095a565b820191906000526020600020905b81548152906001019060200180831161093d57829003601f168201915b5050505050915050919050565b610982838383604051806020016040528060008152506110f9565b505050565b606060006109bb61099784611adf565b6040516020016109a7919061312e565b604051602081830303815290604052611c8c565b9050600d80549050816109ce91906137d2565b9050600d8181548110610a0a577f4e487b7100000000000000000000000000000000000000000000000000000000600052603260045260246000fd5b906000526020600020018054610a1f90613726565b80601f0160208091040260200160405190810160405280929190818152602001828054610a4b90613726565b8015610a985780601f10610a6d57610100808354040283529160200191610a98565b820191906000526020600020905b815481529060010190602001808311610a7b57829003601f168201915b5050505050915050919050565b6000610ab16007611d5b565b90506000610abe8261073e565b90506000610acb83610ed0565b90506000610ad88461115b565b90506000838383604051602001610af193929190612fc5565b60405160208183030381529060405290506000610b0d86610987565b90506000600882600985604051602001610b2a9493929190612ff6565b60405160208183030381529060405290506000610b6f84610b4a84611d69565b604051602001610b5b9291906130a5565b604051602081830303815290604052611d69565b9050600081604051602001610b84919061310c565b6040516020818303038152906040529050610bd36040518060400160405280601581526020017f0a2d2d2d2d2d2d2d2d2d2d2d2d2d2d2d2d2d2d2d2d000000000000000000000081525061156a565b610bfb81604051602001610be7919061303f565b60405160208183030381529060405261156a565b610c396040518060400160405280601581526020017f2d2d2d2d2d2d2d2d2d2d2d2d2d2d2d2d2d2d2d2d0a000000000000000000000081525061156a565b610c43338a611f27565b610c4d8982611f45565b610c576007611fb9565b610c7a604051806060016040528060258152602001613fdd602591398a33611fcf565b7febb98688741ffa4c7589bf325de30cf7becb63de567842e1ccdb6cb949fdc82c338a604051610cab9291906131b7565b60405180910390a1505050505050505050565b6000806002600084815260200190815260200160002060009054906101000a900473ffffffffffffffffffffffffffffffffffffffff169050600073ffffffffffffffffffffffffffffffffffffffff168173ffffffffffffffffffffffffffffffffffffffff161415610d67576040517f08c379a0000000000000000000000000000000000000000000000000000000008152600401610d5e90613392565b60405180910390fd5b80915050919050565b60008073ffffffffffffffffffffffffffffffffffffffff168273ffffffffffffffffffffffffffffffffffffffff161415610de1576040517f08c379a0000000000000000000000000000000000000000000000000000000008152600401610dd890613372565b60405180910390fd5b600360008373ffffffffffffffffffffffffffffffffffffffff1673ffffffffffffffffffffffffffffffffffffffff168152602001908152602001600020549050919050565b606060018054610e3790613726565b80601f0160208091040260200160405190810160405280929190818152602001828054610e6390613726565b8015610eb05780601f10610e8557610100808354040283529160200191610eb0565b820191906000526020600020905b815481529060010190602001808311610e9357829003601f168201915b5050505050905090565b610ecc610ec56116d9565b838361206e565b5050565b60606000610f04610ee084611adf565b604051602001610ef09190613083565b604051602081830303815290604052611c8c565b9050600b8054905081610f1791906137d2565b90506110246040518060400160405280601181526020017f7365636f6e64576f7264735b72616e645d000000000000000000000000000000815250600b8381548110610f8c577f4e487b7100000000000000000000000000000000000000000000000000000000600052603260045260246000fd5b906000526020600020018054610fa190613726565b80601f0160208091040260200160405190810160405280929190818152602001828054610fcd90613726565b801561101a5780601f10610fef5761010080835404028352916020019161101a565b820191906000526020600020905b815481529060010190602001808311610ffd57829003601f168201915b5050505050611cbf565b600b818154811061105e577f4e487b7100000000000000000000000000000000000000000000000000000000600052603260045260246000fd5b90600052602060002001805461107390613726565b80601f016020809104026020016040519081016040528092919081815260200182805461109f90613726565b80156110ec5780601f106110c1576101008083540402835291602001916110ec565b820191906000526020600020905b8154815290600101906020018083116110cf57829003601f168201915b5050505050915050919050565b61110a6111046116d9565b8361179a565b611149576040517f08c379a000000000000000000000000000000000000000000000000000000000815260040161114090613472565b60405180910390fd5b611155848484846121db565b50505050565b6060600061118f61116b84611adf565b60405160200161117b9190613061565b604051602081830303815290604052611c8c565b9050600c80549050816111a291906137d2565b90506112af6040518060400160405280601081526020017f7468697264576f7264735b72616e645d00000000000000000000000000000000815250600c8381548110611217577f4e487b7100000000000000000000000000000000000000000000000000000000600052603260045260246000fd5b90600052602060002001805461122c90613726565b80601f016020809104026020016040519081016040528092919081815260200182805461125890613726565b80156112a55780601f1061127a576101008083540402835291602001916112a5565b820191906000526020600020905b81548152906001019060200180831161128857829003601f168201915b5050505050611cbf565b600c81815481106112e9577f4e487b7100000000000000000000000000000000000000000000000000000000600052603260045260246000fd5b9060005260206000200180546112fe90613726565b80601f016020809104026020016040519081016040528092919081815260200182805461132a90613726565b80156113775780601f1061134c57610100808354040283529160200191611377565b820191906000526020600020905b81548152906001019060200180831161135a57829003601f168201915b5050505050915050919050565b606061138f8261166d565b6113ce576040517f08c379a00000000000000000000000000000000000000000000000000000000081526004016113c5906133f2565b60405180910390fd5b60006006600084815260200190815260200160002080546113ee90613726565b80601f016020809104026020016040519081016040528092919081815260200182805461141a90613726565b80156114675780601f1061143c57610100808354040283529160200191611467565b820191906000526020600020905b81548152906001019060200180831161144a57829003601f168201915b505050505090506000611478612237565b905060008151141561148e5781925050506114d1565b6000825111156114c35780826040516020016114ab929190612fa1565b604051602081830303815290604052925050506114d1565b6114cc8461224e565b925050505b919050565b6000600560008473ffffffffffffffffffffffffffffffffffffffff1673ffffffffffffffffffffffffffffffffffffffff16815260200190815260200160002060008373ffffffffffffffffffffffffffffffffffffffff1673ffffffffffffffffffffffffffffffffffffffff16815260200190815260200160002060009054906101000a900460ff16905092915050565b6116008160405160240161157e91906131fb565b6040516020818303038152906040527f41304fac000000000000000000000000000000000000000000000000000000007bffffffffffffffffffffffffffffffffffffffffffffffffffffffff19166020820180517bffffffffffffffffffffffffffffffffffffffffffffffffffffffff83818316178352505050506122f5565b50565b60007f01ffc9a7000000000000000000000000000000000000000000000000000000007bffffffffffffffffffffffffffffffffffffffffffffffffffffffff1916827bffffffffffffffffffffffffffffffffffffffffffffffffffffffff1916149050919050565b60008073ffffffffffffffffffffffffffffffffffffffff166002600084815260200190815260200160002060009054906101000a900473ffffffffffffffffffffffffffffffffffffffff1673ffffffffffffffffffffffffffffffffffffffff1614159050919050565b600033905090565b816004600083815260200190815260200160002060006101000a81548173ffffffffffffffffffffffffffffffffffffffff021916908373ffffffffffffffffffffffffffffffffffffffff160217905550808273ffffffffffffffffffffffffffffffffffffffff1661175483610cbe565b73ffffffffffffffffffffffffffffffffffffffff167f8c5be1e5ebec7d5bd14f71427d1e84f3dd0314c0f7b2291e5b200ac8c7c3b92560405160405180910390a45050565b60006117a58261166d565b6117e4576040517f08c379a00000000000000000000000000000000000000000000000000000000081526004016117db90613332565b60405180910390fd5b60006117ef83610cbe565b90508073ffffffffffffffffffffffffffffffffffffffff168473ffffffffffffffffffffffffffffffffffffffff161480611831575061183081856114d6565b5b8061186f57508373ffffffffffffffffffffffffffffffffffffffff1661185784610541565b73ffffffffffffffffffffffffffffffffffffffff16145b91505092915050565b8273ffffffffffffffffffffffffffffffffffffffff1661189882610cbe565b73ffffffffffffffffffffffffffffffffffffffff16146118ee576040517f08c379a00000000000000000000000000000000000000000000000000000000081526004016118e5906132b2565b60405180910390fd5b600073ffffffffffffffffffffffffffffffffffffffff168273ffffffffffffffffffffffffffffffffffffffff16141561195e576040517f08c379a0000000000000000000000000000000000000000000000000000000008152600401611955906132f2565b60405180910390fd5b61196983838361231e565b6119746000826116e1565b6001600360008573ffffffffffffffffffffffffffffffffffffffff1673ffffffffffffffffffffffffffffffffffffffff16815260200190815260200160002060008282546119c4919061363c565b925050819055506001600360008473ffffffffffffffffffffffffffffffffffffffff1673ffffffffffffffffffffffffffffffffffffffff1681526020019081526020016000206000828254611a1b919061355b565b92505081905550816002600083815260200190815260200160002060006101000a81548173ffffffffffffffffffffffffffffffffffffffff021916908373ffffffffffffffffffffffffffffffffffffffff160217905550808273ffffffffffffffffffffffffffffffffffffffff168473ffffffffffffffffffffffffffffffffffffffff167fddf252ad1be2c89b69c2b068fc378daa952ba7f163c4a11628f55a4df523b3ef60405160405180910390a4611ada838383612323565b505050565b60606000821415611b27576040518060400160405280600181526020017f30000000000000000000000000000000000000000000000000000000000000008152509050611c87565b600082905060005b60008214611b59578080611b4290613789565b915050600a82611b5291906135b1565b9150611b2f565b60008167ffffffffffffffff811115611b9b577f4e487b7100000000000000000000000000000000000000000000000000000000600052604160045260246000fd5b6040519080825280601f01601f191660200182016040528015611bcd5781602001600182028036833780820191505090505b5090505b60008514611c8057600182611be6919061363c565b9150600a85611bf591906137d2565b6030611c01919061355b565b60f81b818381518110611c3d577f4e487b7100000000000000000000000000000000000000000000000000000000600052603260045260246000fd5b60200101907effffffffffffffffffffffffffffffffffffffffffffffffffffffffffffff1916908160001a905350600a85611c7991906135b1565b9450611bd1565b8093505050505b919050565b600081604051602001611c9f9190612f8a565b6040516020818303038152906040528051906020012060001c9050919050565b611d578282604051602401611cd592919061321d565b6040516020818303038152906040527f4b5c4277000000000000000000000000000000000000000000000000000000007bffffffffffffffffffffffffffffffffffffffffffffffffffffffff19166020820180517bffffffffffffffffffffffffffffffffffffffffffffffffffffffff83818316178352505050506122f5565b5050565b600081600001549050919050565b60606000825190506000811415611d925760405180602001604052806000815250915050611f22565b60006003600283611da3919061355b565b611dad91906135b1565b6004611db991906135e2565b90506000602082611dca919061355b565b67ffffffffffffffff811115611e09577f4e487b7100000000000000000000000000000000000000000000000000000000600052604160045260246000fd5b6040519080825280601f01601f191660200182016040528015611e3b5781602001600182028036833780820191505090505b5090506000604051806060016040528060408152602001614002604091399050600181016020830160005b86811015611edf5760038101905062ffffff818a015116603f8160121c168401518060081b905060ff603f83600c1c1686015116810190508060081b905060ff603f8360061c1686015116810190508060081b905060ff603f831686015116810190508060e01b90508084526004840193505050611e66565b506003860660018114611ef95760028114611f0957611f14565b613d3d60f01b6002830352611f14565b603d60f81b60018303525b508484525050819450505050505b919050565b611f41828260405180602001604052806000815250612328565b5050565b611f4e8261166d565b611f8d576040517f08c379a0000000000000000000000000000000000000000000000000000000008152600401611f84906133b2565b60405180910390fd5b80600660008481526020019081526020016000209080519060200190611fb4929190612717565b505050565b6001816000016000828254019250508190555050565b612069838383604051602401611fe793929190613254565b6040516020818303038152906040527fe3849f79000000000000000000000000000000000000000000000000000000007bffffffffffffffffffffffffffffffffffffffffffffffffffffffff19166020820180517bffffffffffffffffffffffffffffffffffffffffffffffffffffffff83818316178352505050506122f5565b505050565b8173ffffffffffffffffffffffffffffffffffffffff168373ffffffffffffffffffffffffffffffffffffffff1614156120dd576040517f08c379a00000000000000000000000000000000000000000000000000000000081526004016120d490613312565b60405180910390fd5b80600560008573ffffffffffffffffffffffffffffffffffffffff1673ffffffffffffffffffffffffffffffffffffffff16815260200190815260200160002060008473ffffffffffffffffffffffffffffffffffffffff1673ffffffffffffffffffffffffffffffffffffffff16815260200190815260200160002060006101000a81548160ff0219169083151502179055508173ffffffffffffffffffffffffffffffffffffffff168373ffffffffffffffffffffffffffffffffffffffff167f17307eab39ab6107e8899845ad3d59bd9653f200f220920489ca2b5937696c31836040516121ce91906131e0565b60405180910390a3505050565b6121e6848484611878565b6121f284848484612383565b612231576040517f08c379a000000000000000000000000000000000000000000000000000000000815260040161222890613292565b60405180910390fd5b50505050565b606060405180602001604052806000815250905090565b60606122598261166d565b612298576040517f08c379a000000000000000000000000000000000000000000000000000000000815260040161228f90613432565b60405180910390fd5b60006122a2612237565b905060008151116122c257604051806020016040528060008152506122ed565b806122cc84611adf565b6040516020016122dd929190612fa1565b6040516020818303038152906040525b915050919050565b60008151905060006a636f6e736f6c652e6c6f679050602083016000808483855afa5050505050565b505050565b505050565b612332838361251a565b61233f6000848484612383565b61237e576040517f08c379a000000000000000000000000000000000000000000000000000000000815260040161237590613292565b60405180910390fd5b505050565b60006123a48473ffffffffffffffffffffffffffffffffffffffff166126f4565b1561250d578373ffffffffffffffffffffffffffffffffffffffff1663150b7a026123cd6116d9565b8786866040518563ffffffff1660e01b81526004016123ef949392919061316b565b602060405180830381600087803b15801561240957600080fd5b505af192505050801561243a57506040513d601f19601f820116820180604052508101906124379190612a5b565b60015b6124bd573d806000811461246a576040519150601f19603f3d011682016040523d82523d6000602084013e61246f565b606091505b506000815114156124b5576040517f08c379a00000000000000000000000000000000000000000000000000000000081526004016124ac90613292565b60405180910390fd5b805181602001fd5b63150b7a0260e01b7bffffffffffffffffffffffffffffffffffffffffffffffffffffffff1916817bffffffffffffffffffffffffffffffffffffffffffffffffffffffff191614915050612512565b600190505b949350505050565b600073ffffffffffffffffffffffffffffffffffffffff168273ffffffffffffffffffffffffffffffffffffffff16141561258a576040517f08c379a0000000000000000000000000000000000000000000000000000000008152600401612581906133d2565b60405180910390fd5b6125938161166d565b156125d3576040517f08c379a00000000000000000000000000000000000000000000000000000000081526004016125ca906132d2565b60405180910390fd5b6125df6000838361231e565b6001600360008473ffffffffffffffffffffffffffffffffffffffff1673ffffffffffffffffffffffffffffffffffffffff168152602001908152602001600020600082825461262f919061355b565b92505081905550816002600083815260200190815260200160002060006101000a81548173ffffffffffffffffffffffffffffffffffffffff021916908373ffffffffffffffffffffffffffffffffffffffff160217905550808273ffffffffffffffffffffffffffffffffffffffff16600073ffffffffffffffffffffffffffffffffffffffff167fddf252ad1be2c89b69c2b068fc378daa952ba7f163c4a11628f55a4df523b3ef60405160405180910390a46126f060008383612323565b5050565b6000808273ffffffffffffffffffffffffffffffffffffffff163b119050919050565b82805461272390613726565b90600052602060002090601f016020900481019282612745576000855561278c565b82601f1061275e57805160ff191683800117855561278c565b8280016001018555821561278c579182015b8281111561278b578251825591602001919060010190612770565b5b509050612799919061279d565b5090565b5b808211156127b657600081600090555060010161279e565b5090565b60006127cd6127c8846134d2565b6134ad565b9050828152602081018484840111156127e557600080fd5b6127f08482856136e4565b509392505050565b60008135905061280781613f80565b92915050565b60008135905061281c81613f97565b92915050565b60008135905061283181613fae565b92915050565b60008151905061284681613fae565b92915050565b600082601f83011261285d57600080fd5b813561286d8482602086016127ba565b91505092915050565b60008135905061288581613fc5565b92915050565b60006020828403121561289d57600080fd5b60006128ab848285016127f8565b91505092915050565b600080604083850312156128c757600080fd5b60006128d5858286016127f8565b92505060206128e6858286016127f8565b9150509250929050565b60008060006060848603121561290557600080fd5b6000612913868287016127f8565b9350506020612924868287016127f8565b925050604061293586828701612876565b9150509250925092565b6000806000806080858703121561295557600080fd5b6000612963878288016127f8565b9450506020612974878288016127f8565b935050604061298587828801612876565b925050606085013567ffffffffffffffff8111156129a257600080fd5b6129ae8782880161284c565b91505092959194509250565b600080604083850312156129cd57600080fd5b60006129db858286016127f8565b92505060206129ec8582860161280d565b9150509250929050565b60008060408385031215612a0957600080fd5b6000612a17858286016127f8565b9250506020612a2885828601612876565b9150509250929050565b600060208284031215612a4457600080fd5b6000612a5284828501612822565b91505092915050565b600060208284031215612a6d57600080fd5b6000612a7b84828501612837565b91505092915050565b600060208284031215612a9657600080fd5b6000612aa484828501612876565b91505092915050565b612ab681613670565b82525050565b612ac581613682565b82525050565b6000612ad682613518565b612ae0818561352e565b9350612af08185602086016136f3565b612af9816138bf565b840191505092915050565b6000612b0f82613523565b612b19818561353f565b9350612b298185602086016136f3565b612b32816138bf565b840191505092915050565b6000612b4882613523565b612b528185613550565b9350612b628185602086016136f3565b80840191505092915050565b60008154612b7b81613726565b612b858186613550565b94506001821660008114612ba05760018114612bb157612be4565b60ff19831686528186019350612be4565b612bba85613503565b60005b83811015612bdc57815481890152600182019150602081019050612bbd565b838801955050505b50505092915050565b6000612bfa606383613550565b9150612c05826138d0565b606382019050919050565b6000612c1d602583613550565b9150612c288261396b565b602582019050919050565b6000612c4060328361353f565b9150612c4b826139ba565b604082019050919050565b6000612c6360258361353f565b9150612c6e82613a09565b604082019050919050565b6000612c86601c8361353f565b9150612c9182613a58565b602082019050919050565b6000612ca9600a83613550565b9150612cb482613a81565b600a82019050919050565b6000612ccc60248361353f565b9150612cd782613aaa565b604082019050919050565b6000612cef60198361353f565b9150612cfa82613af9565b602082019050919050565b6000612d12600b83613550565b9150612d1d82613b22565b600b82019050919050565b6000612d35602c8361353f565b9150612d4082613b4b565b604082019050919050565b6000612d58600d83613550565b9150612d6382613b9a565b600d82019050919050565b6000612d7b60388361353f565b9150612d8682613bc3565b604082019050919050565b6000612d9e602a8361353f565b9150612da982613c12565b604082019050919050565b6000612dc160298361353f565b9150612dcc82613c61565b604082019050919050565b6000612de4602e8361353f565b9150612def82613cb0565b604082019050919050565b6000612e07600283613550565b9150612e1282613cff565b600282019050919050565b6000612e2a60208361353f565b9150612e3582613d28565b602082019050919050565b6000612e4d60318361353f565b9150612e5882613d51565b604082019050919050565b6000612e70602c8361353f565b9150612e7b82613da0565b604082019050919050565b6000612e93602f8361353f565b9150612e9e82613def565b604082019050919050565b6000612eb6600a83613550565b9150612ec182613e3e565b600a82019050919050565b6000612ed960218361353f565b9150612ee482613e67565b604082019050919050565b6000612efc600a83613550565b9150612f0782613eb6565b600a82019050919050565b6000612f1f601d83613550565b9150612f2a82613edf565b601d82019050919050565b6000612f4260318361353f565b9150612f4d82613f08565b604082019050919050565b6000612f65600583613550565b9150612f7082613f57565b600582019050919050565b612f84816136da565b82525050565b6000612f968284612b3d565b915081905092915050565b6000612fad8285612b3d565b9150612fb98284612b3d565b91508190509392505050565b6000612fd18286612b3d565b9150612fdd8285612b3d565b9150612fe98284612b3d565b9150819050949350505050565b60006130028287612b6e565b915061300e8286612b3d565b915061301a8285612b6e565b91506130268284612b3d565b915061303182612d4b565b915081905095945050505050565b600061304a82612c10565b91506130568284612b3d565b915081905092915050565b600061306c82612c9c565b91506130788284612b3d565b915081905092915050565b600061308e82612d05565b915061309a8284612b3d565b915081905092915050565b60006130b082612ea9565b91506130bc8285612b3d565b91506130c782612bed565b91506130d38284612b3d565b91506130de82612dfa565b91508190509392505050565b60006130f582612eef565b91506131018284612b3d565b915081905092915050565b600061311782612f12565b91506131238284612b3d565b915081905092915050565b600061313982612f58565b91506131458284612b3d565b915081905092915050565b60006020820190506131656000830184612aad565b92915050565b60006080820190506131806000830187612aad565b61318d6020830186612aad565b61319a6040830185612f7b565b81810360608301526131ac8184612acb565b905095945050505050565b60006040820190506131cc6000830185612aad565b6131d96020830184612f7b565b9392505050565b60006020820190506131f56000830184612abc565b92915050565b600060208201905081810360008301526132158184612b04565b905092915050565b600060408201905081810360008301526132378185612b04565b9050818103602083015261324b8184612b04565b90509392505050565b6000606082019050818103600083015261326e8186612b04565b905061327d6020830185612f7b565b61328a6040830184612aad565b949350505050565b600060208201905081810360008301526132ab81612c33565b9050919050565b600060208201905081810360008301526132cb81612c56565b9050919050565b600060208201905081810360008301526132eb81612c79565b9050919050565b6000602082019050818103600083015261330b81612cbf565b9050919050565b6000602082019050818103600083015261332b81612ce2565b9050919050565b6000602082019050818103600083015261334b81612d28565b9050919050565b6000602082019050818103600083015261336b81612d6e565b9050919050565b6000602082019050818103600083015261338b81612d91565b9050919050565b600060208201905081810360008301526133ab81612db4565b9050919050565b600060208201905081810360008301526133cb81612dd7565b9050919050565b600060208201905081810360008301526133eb81612e1d565b9050919050565b6000602082019050818103600083015261340b81612e40565b9050919050565b6000602082019050818103600083015261342b81612e63565b9050919050565b6000602082019050818103600083015261344b81612e86565b9050919050565b6000602082019050818103600083015261346b81612ecc565b9050919050565b6000602082019050818103600083015261348b81612f35565b9050919050565b60006020820190506134a76000830184612f7b565b92915050565b60006134b76134c8565b90506134c38282613758565b919050565b6000604051905090565b600067ffffffffffffffff8211156134ed576134ec613890565b5b6134f6826138bf565b9050602081019050919050565b60008190508160005260206000209050919050565b600081519050919050565b600081519050919050565b600082825260208201905092915050565b600082825260208201905092915050565b600081905092915050565b6000613566826136da565b9150613571836136da565b9250827fffffffffffffffffffffffffffffffffffffffffffffffffffffffffffffffff038211156135a6576135a5613803565b5b828201905092915050565b60006135bc826136da565b91506135c7836136da565b9250826135d7576135d6613832565b5b828204905092915050565b60006135ed826136da565b91506135f8836136da565b9250817fffffffffffffffffffffffffffffffffffffffffffffffffffffffffffffffff048311821515161561363157613630613803565b5b828202905092915050565b6000613647826136da565b9150613652836136da565b92508282101561366557613664613803565b5b828203905092915050565b600061367b826136ba565b9050919050565b60008115159050919050565b60007fffffffff0000000000000000000000000000000000000000000000000000000082169050919050565b600073ffffffffffffffffffffffffffffffffffffffff82169050919050565b6000819050919050565b82818337600083830152505050565b60005b838110156137115780820151818401526020810190506136f6565b83811115613720576000848401525b50505050565b6000600282049050600182168061373e57607f821691505b6020821081141561375257613751613861565b5b50919050565b613761826138bf565b810181811067ffffffffffffffff821117156137805761377f613890565b5b80604052505050565b6000613794826136da565b91507fffffffffffffffffffffffffffffffffffffffffffffffffffffffffffffffff8214156137c7576137c6613803565b5b600182019050919050565b60006137dd826136da565b91506137e8836136da565b9250826137f8576137f7613832565b5b828206905092915050565b7f4e487b7100000000000000000000000000000000000000000000000000000000600052601160045260246000fd5b7f4e487b7100000000000000000000000000000000000000000000000000000000600052601260045260246000fd5b7f4e487b7100000000000000000000000000000000000000000000000000000000600052602260045260246000fd5b7f4e487b7100000000000000000000000000000000000000000000000000000000600052604160045260246000fd5b6000601f19601f8301169050919050565b7f222c20226465736372697074696f6e223a20224120686967686c79206163636c60008201527f61696d656420636f6c6c656374696f6e206f6620636972636c65732e222c202260208201527f696d616765223a2022646174613a696d6167652f7376672b786d6c3b6261736560408201527f36342c0000000000000000000000000000000000000000000000000000000000606082015250565b7f68747470733a2f2f6e6674707265766965772e30786465762e636f6465732f3f60008201527f636f64653d000000000000000000000000000000000000000000000000000000602082015250565b7f4552433732313a207472616e7366657220746f206e6f6e20455243373231526560008201527f63656976657220696d706c656d656e7465720000000000000000000000000000602082015250565b7f4552433732313a207472616e736665722066726f6d20696e636f72726563742060008201527f6f776e6572000000000000000000000000000000000000000000000000000000602082015250565b7f4552433732313a20746f6b656e20616c7265616479206d696e74656400000000600082015250565b7f54484952445f574f524400000000000000000000000000000000000000000000600082015250565b7f4552433732313a207472616e7366657220746f20746865207a65726f2061646460008201527f7265737300000000000000000000000000000000000000000000000000000000602082015250565b7f4552433732313a20617070726f766520746f2063616c6c657200000000000000600082015250565b7f5345434f4e445f574f5244000000000000000000000000000000000000000000600082015250565b7f4552433732313a206f70657261746f7220717565727920666f72206e6f6e657860008201527f697374656e7420746f6b656e0000000000000000000000000000000000000000602082015250565b7f3c2f746578743e3c2f7376673e00000000000000000000000000000000000000600082015250565b7f4552433732313a20617070726f76652063616c6c6572206973206e6f74206f7760008201527f6e6572206e6f7220617070726f76656420666f7220616c6c0000000000000000602082015250565b7f4552433732313a2062616c616e636520717565727920666f7220746865207a6560008201527f726f206164647265737300000000000000000000000000000000000000000000602082015250565b7f4552433732313a206f776e657220717565727920666f72206e6f6e657869737460008201527f656e7420746f6b656e0000000000000000000000000000000000000000000000602082015250565b7f45524337323155524953746f726167653a2055524920736574206f66206e6f6e60008201527f6578697374656e7420746f6b656e000000000000000000000000000000000000602082015250565b7f227d000000000000000000000000000000000000000000000000000000000000600082015250565b7f4552433732313a206d696e7420746f20746865207a65726f2061646472657373600082015250565b7f45524337323155524953746f726167653a2055524920717565727920666f722060008201527f6e6f6e6578697374656e7420746f6b656e000000000000000000000000000000602082015250565b7f4552433732313a20617070726f76656420717565727920666f72206e6f6e657860008201527f697374656e7420746f6b656e0000000000000000000000000000000000000000602082015250565b7f4552433732314d657461646174613a2055524920717565727920666f72206e6f60008201527f6e6578697374656e7420746f6b656e0000000000000000000000000000000000602082015250565b7f7b226e616d65223a202200000000000000000000000000000000000000000000600082015250565b7f4552433732313a20617070726f76616c20746f2063757272656e74206f776e6560008201527f7200000000000000000000000000000000000000000000000000000000000000602082015250565b7f46495253545f574f524400000000000000000000000000000000000000000000600082015250565b7f646174613a6170706c69636174696f6e2f6a736f6e3b6261736536342c000000600082015250565b7f4552433732313a207472616e736665722063616c6c6572206973206e6f74206f60008201527f776e6572206e6f7220617070726f766564000000000000000000000000000000602082015250565b7f434f4c4f52000000000000000000000000000000000000000000000000000000600082015250565b613f8981613670565b8114613f9457600080fd5b50565b613fa081613682565b8114613fab57600080fd5b50565b613fb78161368e565b8114613fc257600080fd5b50565b613fce816136da565b8114613fd957600080fd5b5056fe416e204e465420772f20494420257320686173206265656e206d696e74656420746f2025734142434445464748494a4b4c4d4e4f505152535455565758595a6162636465666768696a6b6c6d6e6f707172737475767778797a303132333435363738392b2fa26469706673582212202848335b5120ab868cb38dcd8b2dac21a82877823cf4bbff55b4a911033b052a64736f6c634300080100333c73766720786d6c6e733d27687474703a2f2f7777772e77332e6f72672f323030302f73766727207072657365727665417370656374526174696f3d27784d696e594d696e206d656574272076696577426f783d273020302033353020333530273e3c7374796c653e2e62617365207b2066696c6c3a2077686974653b20666f6e742d66616d696c793a2073657269663b20666f6e742d73697a653a20323470783b207d3c2f7374796c653e3c726563742077696474683d273130302527206865696768743d2731303025272066696c6c3d27272f3e3c7465787420783d273530252720793d273530252720636c6173733d27626173652720646f6d696e616e742d626173656c696e653d276d6964646c652720746578742d616e63686f723d276d6964646c65273e",
  "linkReferences": {},
  "deployedLinkReferences": {}
}